:020000040C00EE
:100000000008001001020008B1020008B102000857
:10001000B1020008B1020008B102000800000000AF
:10002000000000000000000000000000B102000815
:10003000B102000800000000B1020008B10200088F
:10004000B1020008B1020008B1020008B1020008C4
:10005000B1020008B1020008B1020008B1020008B4
:10006000B1020008000000000000000000000000D5
:10007000B102000800000000B1020008B10200084F
:10008000B1020008B1020008B1020008B102000884
:10009000B1020008B1020008B1020008B102000874
:1000A000B1020008B1020008B1020008B102000864
:1000B000B1020008B1020008B1020008B102000854
:1000C000B1020008B1020008B1020008B102000844
:1000D000B1020008B1020008B1020008B102000834
:1000E000B1020008B1020008B1020008B102000824
:1000F000D9050008B1020008B1020008B1020008E9
:10010000B1020008B1020008B1020008B102000803
:10011000B1020008B1020008B1020008B1020008F3
:10012000B1020008B1020008B1020008B1020008E3
:10013000B1020008B1020008B1020008B1020008D3
:10014000B1020008B1020008B1020008B1020008C3
:10015000B1020008B1020008B1020008B1020008B3
:10016000000000000000000000000000000000008F
:10017000B1020008B1020008B1020008B102000893
:10018000B1020008B1020008B1020008B102000883
:10019000B1020008B1020008B1020008B102000873
:1001A000B1020008B1020008B1020008B102000863
:1001B000B1020008B1020008B1020008B102000853
:1001C000B1020008B1020008B1020008B102000843
:1001D000B1020008B1020008B102000800000000EE
:1001E000B1020008B1020008B1020008B102000823
:1001F000B102000800000000B10200080000000089
:10020000DFF88CD023488047234C244DAC4209DAD8
:1002100021686268A368043BA2BFC858D050FAE7BF
:100220000C34F3E71E4B1F4CA34208DA19685A68D6
:100230000020043AA4BF8850FBE70833F4E71A48CB
:1002400080471A4880470000BC3C000C000000209A
:10025000E00800009C45000C000000300000000099
:10026000BC3C000C0008001000000000BC3C000C6E
:100270000008001000000000E0080020F00000006E
:100280000000003000000000000800100000000026
:1002900000080010ED2B0008480200087802000852
:1002A0007802000890020008F92F0008E90400080D
:1002B000FEE7000080B483B000AF0346FB7197F9FE
:1002C0000730002B0BDBFB7903F01F02074997F97E
:1002D00007305B09012000FA02F241F8232000BF39
:1002E0000C37BD465DF8047B704700BF00E100E0BD
:1002F00080B485B000AFF8600B467A60FB72FB7A81
:100300007A689A40FB685A6000BF1437BD465DF8B2
:10031000047B704780B483B000AF78600B46FB70FD
:100320007B68DA68FB78012101FA03F31A437B68E2
:10033000DA6000BF0C37BD465DF8047B704780B4BF
:1003400083B000AF78607B680122DA6000BF0C37B1
:10035000BD465DF8047B704780B483B000AF786021
:100360000B467B807A887B685A6300BF0C37BD469A
:100370005DF8047B704780B483B000AF786039606B
:100380007B683A681A6100BF0C37BD465DF8047B94
:10039000704780B483B000AF78600B46FB707B6819
:1003A000D3F8A420FB78012101FA03F31A437B68F8
:1003B000C3F8A42000BF0C37BD465DF8047B70472E
:1003C00080B485B000AF0346FB710023FB6011E0F1
:1003D0000E4AFB6813441B78FA799A4207D10C4BFA
:1003E00000221A600B4AFB6852F8233008E0FB68D1
:1003F0000133FB60084B1B681A46FB689342E7D346
:1004000018461437BD465DF8047B70470000002095
:10041000E00800201C0000208800002090B585B076
:1004200000AF78603960786803F06AF9044638688C
:1004300003F066F9034623440133184602F000FE38
:100440000346FB607968F86803F0F8F83968F868E3
:1004500003F0D4F8FB6818461437BD4690BD000081
:1004600080B584B000AF0023FB6029E01B4B1A6805
:10047000FB6813441B781846FFF7A2FFB860184BBF
:100480001B68B9681846FFF7C9FF0346144A136092
:10049000124B1B68184603F033F903465A1EFB68DB
:1004A0009A420AD90F4B7B600D4B1B68796818463E
:1004B000FFF7B4FF03460A4A1360FB680133FB6091
:1004C000064B1B68184603F01BF90246FB689A426C
:1004D000CCD800BF00BF1037BD4680BD8C000020C7
:1004E00090000020A83C000880B500AFFFF7B8FFDF
:1004F000304B1B68184603F003F903461A462E4B8F
:100500001A602E4A01212E4800F0D8F800212D480B
:1005100000F055FA2C492D4800F0A7FA42F6C751D1
:100520002A48FFF719FF01212648FFF724FF002280
:100530000021264800F072FE00212448FFF729FF21
:100540002C20FFF7B7FE00211E48FFF7E3FE1F48EF
:10055000FFF7F5FE1E4B1A68174B1B689A4214DA18
:10056000144B1B681A4A126813441B78312B05D1AF
:10057000012201211248FFF7BBFEEBE74FF4803266
:1005800001210F48FFF7B4FEE4E70B4B1A68114B4B
:100590001B681A440E4B1B689A4206DD4FF48032EA
:1005A00001210748FFF7A4FED4E7094B00221A6097
:1005B000D0E700BF90000020E4080020AC3C000819
:1005C0000081024800C000409800002000C10040A7
:1005D000E80800209400002080B400AF044B1B68A2
:1005E0000133034A136000BFBD465DF8047B7047CA
:1005F000E808002080B483B000AF78600B46FB7041
:100600001346BB70FB789B08DBB21A467B6804324A
:1006100053F82220FB7803F00303DB00F82101FAF2
:1006200003F3DB43F9788908C9B2084602EA0301FB
:100630007B68021D43F82210FB789B08DBB21A4648
:100640007B68043253F82220B978FB7803F0030367
:10065000DB0001FA03F3F9788908C9B2084642EAD7
:1006600003017B68021D43F8221000BF0C37BD4612
:100670005DF8047B704780B483B000AF78600B46B0
:10068000FB701346BB707B685A6FFB785B000321DD
:1006900001FA03F3DB431A407B685A677B685A6FA1
:1006A000B978FB785B0001FA03F31A437B685A6759
:1006B00000BF0C37BD465DF8047B704780B485B041
:1006C00000AFF8600B467A60FB72FB7A9B08DBB2E6
:1006D0001A46FB68043253F82220FB7A03F0030326
:1006E000DB00F82101FA03F3DB43F97A8908C9B288
:1006F000084602EA0301FB68021D43F82210FB686A
:100700005A6FFB7A5B00032101FA03F3DB431A40C3
:10071000FB685A67FB68384A934203D0FB68374A44
:1007200093420AD1FB681A6EFB7A012101FA03F3A6
:10073000DB431A40FB681A663CE07B685A68FB7A28
:100740009A40FB685A60FB7ADB08DBB21A46FB680A
:10075000103253F82220FB7A03F007039B00072195
:1007600001FA03F3DB43F97AC908C9B2084602EA81
:100770000301FB6800F1100243F82210FB7ADB084A
:10078000DBB21A46FB68103253F822207B681B7AD2
:100790001946FB7A03F007039B0001FA03F3F97A89
:1007A000C908C9B2084642EA0301FB6800F1100219
:1007B00043F82210FB7A9B08DBB21A46FB6804322E
:1007C00053F822207B681B781946FB7A03F0030359
:1007D000DB0001FA03F3F97A8908C9B2084642EA54
:1007E0000301FB68021D43F8221000BF1437BD4609
:1007F0005DF8047B704700BF008E0248008F0248FE
:1008000080B483B000AF78600B46FB701346BB70BA
:10081000FB78DB08DBB21A467B68103253F82220E3
:10082000FB7803F007039B00072101FA03F3DB4386
:10083000F978C908C9B2084602EA03017B6800F1E9
:10084000100243F82210FB78DB08DBB21A467B6803
:10085000103253F82220B978FB7803F007039B008D
:1008600001FA03F3F978C908C9B2084642EA03015C
:100870007B6800F1100243F8221000BF0C37BD4620
:100880005DF8047B704780B483B000AF78607B680C
:10089000DB6843F480727B68DA6000BF0C37BD46CA
:1008A0005DF8047B704780B483B000AF78600B467E
:1008B000FB70FA787B681A6200BF0C37BD465DF8A2
:1008C000047B704780B582B000AF78607B68114AC6
:1008D000934203D1042001F0BDF816E07B680E4A74
:1008E000934203D1082001F0B5F80EE07B680B4A73
:1008F000934203D1102001F0ADF806E07B68084A6E
:10090000934202D1074801F0A5F800BF0837BD4661
:1009100080BD00BF00C00040000001400040014019
:10092000004000480100001080B582B000AF786040
:100930007B68114A934203D1042001F0A9F816E024
:100940007B680E4A934203D1082001F0A1F80EE023
:100950007B680B4A934203D1102001F099F806E01E
:100960007B68084A934202D1074801F091F800BF22
:100970000837BD4680BD00BF00C0004000000140F8
:1009800000400140004000480100001080B582B0E6
:1009900000AF7860102001F065FB7868FFF7C4FFB6
:1009A00000BF0837BD4680BD80B582B000AF78601B
:1009B0007868FFF787FF00BF0837BD4680BD80B568
:1009C00084B000AF78600B46FB707868FFF7DEFFFD
:1009D0007868FFF758FF7B681B68FB60FB6823F4AF
:1009E0004043FB60FB789B03FA681343FB607B6822
:1009F000FA681A6000BF1037BD4680BD80B485B06C
:100A000000AF78600B46FB707B681B68FB60FB687F
:100A100023F03003FB60FB781B01FA681343FB6093
:100A20007B68FA681A6000BF1437BD465DF8047B26
:100A3000704780B485B000AF786039607B681B6810
:100A4000FB603B681B0CDB43FA681340FB603B68B0
:100A50009BB2FA681343FB607B68FA681A6000BFB8
:100A60001437BD465DF8047B704780B483B000AF97
:100A7000786039603B681A687B685A613B685B79CB
:100A8000C3F34013DBB21A057B685A603B681B79DD
:100A9000C3F30303DBB21A467B685A623B685B7997
:100AA000C3F30303DBB21A467B681A623B685B79C7
:100AB000C3F30013DBB21A467B689A613B681B796B
:100AC000C3F30313DBB21A467B68DA6200BF0C374C
:100AD000BD465DF8047B704780B483B000AF78609A
:100AE00039603B681A687B685A613B685B79C3F37D
:100AF0000003DBB21A057B685A603B681B79C3F3BD
:100B00000303DBB21A467B685A623B681B79C3F366
:100B10000313DBB21A467B68DA6200BF0C37BD46AE
:100B20005DF8047B704780B485B000AF78600B46F9
:100B3000FB701346BB707B685B68BB60BB6823F0CF
:100B40000303BB60FB78BA681343BB607B68BA6879
:100B50005A607B685B69FB60BB78012B04D1FB6842
:100B600043F48063FB6003E0FB6823F48063FB6075
:100B70007B68FA685A6100BF1437BD465DF8047B94
:100B8000704780B485B000AF78600B46FB701346A9
:100B9000BB707B685B68FB60FB6823F00C03FB6049
:100BA000FB789B00FA681343FB607B68FA685A6025
:100BB0007B685B69BB60BB6823F44073BB60BB7838
:100BC0001B02BA681343BB607B68BA685A6100BFF6
:100BD0001437BD465DF8047B704780B485B000AF24
:100BE00078600B46FB707B685B68FB60FB6823F4F6
:100BF0004053FB60FB781B03FA681343FB607B6880
:100C0000FA685A6000BF1437BD465DF8047B704730
:100C100080B485B000AF7860084611461A46034696
:100C2000FB700B46BB7013467B707B685B69FB6097
:100C30007B685B68BB60BB6823F44023BB60FB78C8
:100C40009B04BA681343BB607B68BA685A60BB7880
:100C5000012B04D1FB6843F08073FB6003E0FB6869
:100C600023F08073FB607B78002B04D0FB6843F497
:100C70000003FB6003E0FB6823F40003FB607B6878
:100C8000FA685A6100BF1437BD465DF8047B7047AF
:100C900080B485B000AF78600B46FB707B685B6802
:100CA000FB60FB6823F44043FB60FB789B03FA681E
:100CB0001343FB607B68FA685A6000BF1437BD4677
:100CC0005DF8047B704780B485B000AF78600B4658
:100CD000FB707B685B68FB60FB6823F44073FB6020
:100CE000FB781B02FA681343FB607B68FA685A6062
:100CF00000BF1437BD465DF8047B704780B485B0F3
:100D000000AF78600B46FB707B685B68FB60FB683C
:100D100023F03003FB60FB781B01FA681343FB6090
:100D20007B68FA685A6000BF1437BD465DF8047BE3
:100D3000704780B485B000AF78600B46FB707B686D
:100D40005B68FB60FB6823F0C003FB60FB789B01E2
:100D5000FA681343FB607B68FA685A6000BF143777
:100D6000BD465DF8047B704780B485B000AF786005
:100D70000B46FB707B685B68FB60FB6823F4406399
:100D8000FB60FB789B02FA681343FB607B68FA68A0
:100D90005A6000BF1437BD465DF8047B704780B4CD
:100DA00085B000AF78607B685B68FB60FB6823F40C
:100DB0008033FB60FB6843F48033FB607B68FA6838
:100DC0005A6000BF1437BD465DF8047B704780B49D
:100DD00085B000AF78600B46FB701346BB707B6834
:100DE0005B68BB60BB6823F40033BB60BB6843F443
:100DF0000033BB607B68BA685A607B685B69FB60E4
:100E0000BB78002B04D0FB6843F40013FB6003E0C5
:100E1000FB6823F40013FB60FB78012B04D1FB6813
:100E200043F48003FB6003E0FB6823F48003FB6072
:100E30007B68FA685A6100BF1437BD465DF8047BD1
:100E4000704780B487B000AFF860B9607A60FB6823
:100E50001B687B617B6923F440237B61BB685B7803
:100E60009B047A6913437B617B6923F440137B61A4
:100E70007B685B781B057A6913437B617B6923F48C
:100E800000037B61BB689B78DB057A6913437B6158
:100E90007B6923F080737B617B689B781B067A6992
:100EA00013437B617B6923F0C0537B61BB68DB78B4
:100EB000DB067A6913437B617B6923F0C0437B6166
:100EC0007B68DB785B077A6913437B617B6923F07E
:100ED000F0037B61BB681B781B017A6913437B615C
:100EE0007B6923F470637B617B681B781B027A69E2
:100EF00013437B61FB687A691A6000BF1C37BD46EB
:100F00005DF8047B704780B489B000AFF8600B4691
:100F10007A60FB72FB7A013BFB77FB681B68BB6165
:100F2000FB7F5B00DBB21033FB75FB7D032202FA13
:100F300003F3DB43BA691340BB617B685B781A46F5
:100F4000FB7D02FA03F3BA691343BB61FB7F1633DF
:100F5000FB75FB7D012202FA03F3DB43BA69134000
:100F6000BB617B689B781A46FB7D02FA03F3BA6982
:100F70001343BB61FB7F5B00DBB21933FB75FB7D69
:100F8000032202FA03F3DB43BA691340BB617B68B7
:100F9000DB781A46FB7D02FA03F3BA691343BB619F
:100FA000FB7F9B00FB75FB7D0F2202FA03F3DB4303
:100FB000BA691340BB617B681B781A46FB7D02FA55
:100FC00003F3BA691343BB61FB68BA691A6000BFD7
:100FD0002437BD465DF8047B704780B485B000AF10
:100FE00078600B46FB701346BB70FB78013BFB73CC
:100FF000FB7B9B00BB737B681B68BB60BB7B0F22CA
:1010000002FA03F3DB43BA681340BB60BA78BB7BD8
:1010100002FA03F3BA681343BB607B68BA681A60CC
:1010200000BF1437BD465DF8047B704780B483B0C1
:1010300000AF78600B46FB70FB78002B06D17B6815
:101040005B6923F002027B685A6105E07B685B699B
:1010500043F002027B685A6100BF0C37BD465DF861
:10106000047B704780B483B000AF78600B46FB70A0
:10107000FB78002B06D17B685B6923F001027B685B
:101080005A6105E07B685B6943F001027B685A6145
:1010900000BF0C37BD465DF8047B704780B483B059
:1010A00000AF78600B46FB70FB787A681C339B00BE
:1010B00013445B6818460C37BD465DF8047B7047E7
:1010C00080B487B000AFF8600B467A60FB720123F2
:1010D000FB75FB685B6903F01003002B04D0002351
:1010E0007B7504233B750BE0FB7A012B04D10223B3
:1010F0007B7504233B7503E000237B7502233B755E
:101100007B7DBB7517E0BB7DFA681C339B001344E5
:101110005B6803F48013002B0AD0BB7DFA681C3394
:101120009B0013445A687B681A600023FB7506E035
:10113000BB7D0133BB75BA7D3B7D9A42E3D3FB7D1A
:1011400018461C37BD465DF8047B704780B485B0F7
:1011500000AF78600B46FB707B681B6DFB60FB6823
:101160001B0D03F00303BB60FB78BA689A4202D000
:101170004FF0FF33FB60FB6818461437BD465DF83F
:10118000047B704780B584B000AF78600846114694
:101190001A460346FB700B46BB7013467B707B6898
:1011A0005B69FB60FB6823F4C043FB60FB78002BAA
:1011B00003D0FB6843F40053FB60BB78002B03D0E3
:1011C000FB6843F48043FB607B68FA685A617B7874
:1011D00019467868FFF767FB00BF1037BD4680BD32
:1011E00080B485B000AF78600B46FB707B689B6A6B
:1011F000FB60FB6823F47063FB60FB781B02FA68FA
:101200001343FB607B68FA689A62FA787B685A62DB
:1012100000BF1437BD465DF8047B704780B487B0CB
:1012200000AF78600B46FB701346BB707B68D3F849
:10123000A830FB60FB78092B2CD801A252F823F0D0
:10124000691200086912000873120008731200087E
:1012500095120008951200089512000895120008D2
:101260007D1200088912000803233B6100237B6183
:1012700016E00C233B6102237B6111E04FF44073C5
:101280003B6108237B610BE04FF440633B610A2321
:101290007B6105E04FF440533B610C237B6100BF51
:1012A0003B69DB43FA681340FB60BA787B6902FA5A
:1012B00003F3FA681343FB607B68FA68C3F8A8205D
:1012C00000BF1C37BD465DF8047B704780B485B015
:1012D00000AF78600B46FB707B689B69FB60FB6826
:1012E00023F00103FB60FB78FA681343FB607B6823
:1012F000FA689A6100BF1437BD465DF8047B7047F9
:1013000080B400AF044B9B6903F480331846BD469C
:101310005DF8047B704700BF0046005080B400AF0A
:10132000044B5B6A03F440331846BD465DF8047B0A
:10133000704700BF0046005080B400AF054B9B6A69
:10134000DBB203F00303DBB21846BD465DF8047B55
:10135000704700BF0046005080B400AF064B1A68CB
:10136000064B1B6903F0010302FA03F31846BD465E
:101370005DF8047B704700BFC0FF002000460050AE
:1013800080B400AF034B1B681846BD465DF8047B74
:10139000704700BFC0FF002080B400AF034BD3F8FC
:1013A000C4301846BD465DF8047B704700400050CD
:1013B00080B584B000AF786001F068FD0C4B1B680D
:1013C0000C4AA2FB03239A0C7B6802FB03F37B60AD
:1013D0000023FB6003E000BFFB680133FB60FA6899
:1013E0007B689A42F7D300BF00BF1037BD4680BD6F
:1013F000C0FF002083DE1B4380B483B000AF786061
:10140000054B9A6804497B6813438B6000BF0C3717
:10141000BD465DF8047B70477440005080B483B0D3
:1014200000AF7860064B9A687B68DB430449134041
:101430008B6000BF0C37BD465DF8047B704700BF72
:101440007440005080B483B000AF7860054B1A69D7
:1014500004497B6813430B6100BF0C37BD465DF840
:10146000047B70477440005080B400AF034B5B684E
:101470001846BD465DF8047B704700BF74400050BD
:1014800080B483B000AF7860044A7B68D36000BF4B
:101490000C37BD465DF8047B704700BF74400050B8
:1014A00080B400AF044B1B6903F470631846BD465B
:1014B0005DF8047B704700BF0040005080B483B0EB
:1014C00000AF0346FB80044AFB88136100BF0C3762
:1014D000BD465DF8047B70470040005080B483B087
:1014E00000AF7860054A7B680A339B0013445B6851
:1014F00018460C37BD465DF8047B7047004000502D
:1015000080B483B000AF78603960064A7B680A33E4
:101510009B0013443A685A6000BF0C37BD465DF823
:10152000047B70470040005080B483B000AF786007
:1015300039600A4A7B68283352F8232001213B682E
:1015400001FA03F305491A437B68283341F8232045
:1015500000BF0C37BD465DF8047B7047004000506B
:1015600080B483B000AF786039600B4A7B68283361
:1015700052F8232001213B6801FA03F3DB430649BB
:101580001A407B68283341F8232000BF0C37BD4642
:101590005DF8047B704700BF0040005080B483B00A
:1015A00000AF786039607B681A013B68DB02134347
:1015B000054A43F40803C2F88C3000BF0C37BD461F
:1015C0005DF8047B704700BF0040005080B400AF5E
:1015D000064BD3F88C30054A23F00103C2F88C3057
:1015E00000BFBD465DF8047B704700BF004000505F
:1015F00080B400AF064BD3F88C30054A43F00103AA
:10160000C2F88C3000BFBD465DF8047B704700BF58
:101610000040005080B400AF074BD3F88C3003F08B
:101620000103002B0CBF01230023DBB21846BD468B
:101630005DF8047B704700BF0040005080B400AFED
:10164000074BD3F8903003F48043002B14BF0123E1
:101650000023DBB21846BD465DF8047B704700BF2F
:101660000040005080B582B000AF0023FB71FFF74F
:10167000D1FF034683F00103DBB2002B01D001232D
:10168000FB7100F031F80346002B01D00223FB71FF
:10169000064BD3F88C30054A43F00203C2F88C3075
:1016A000FB7918460837BD4680BD00BF004000509A
:1016B00080B582B000AFFFF7ADFF034683F00103B2
:1016C000DBB2002B03D06FF000437B6005E0054BDD
:1016D000D3F89030C3F309037B607B681846083762
:1016E000BD4680BD0040005080B400AF074BD3F82A
:1016F000903003F40043002B14BF01230023DBB21E
:101700001846BD465DF8047B704700BF004000509E
:1017100080B485B000AF786039607B681B0403F447
:101720007023FB60FB6843F00103FB600B4A3B68DE
:10173000C2F8CC30094AFB68C2F8C83000BF074B7A
:10174000D3F8C43003F40053002BF8D100BF00BF1E
:101750001437BD465DF8047B704700BF0040005061
:1017600080B485B000AF78607B681B0403F47023FD
:10177000FB60FB6823F00103FB600A4AFB68C2F8C8
:10178000C83000BF074BD3F8C43003F40053002B1C
:10179000F8D1044BD3F8CC3018461437BD465DF869
:1017A000047B70470040005090B585B002AF786070
:1017B000002000F0F1FA00F07FFD7B68DB79002B60
:1017C0000AD000F077FF00BF00F062FF034683F00D
:1017D0000103DBB2002BF7D17B685B7A184600F07F
:1017E0006FFB00BFFFF7D8FD0346002BFAD17B68E3
:1017F0001B7A184600F00CFD7B681B7C184600F035
:101800007FFB7B685B7C184600F0A6FB7B689B7CBB
:10181000184600F08BFB7B68DB7C184600F0B2FBBF
:101820007B689B79002B0AD000F0D8FF00BF00F046
:10183000FDFF034683F00103DBB2002BF7D17B6889
:10184000DB78002B02D101F055F811E001F040F8EF
:101850007B6898887B68D9787B685B781A467B6858
:101860001B781C467B689B780093234601F054F854
:101870007B68DB68B3F5803F03D14FF4803000F024
:101880008BFA01F003FB00BF0C37BD4690BD000092
:1018900080B483B000AF7860064B9A687B68DB4306
:1018A000044913408B6000BF0C37BD465DF8047BD4
:1018B000704700BF6041005080B483B000AF7860D3
:1018C000054B9A6804497B6813438B6000BF0C3753
:1018D000BD465DF8047B70476041005080B400AFA6
:1018E000034B5B681846BD465DF8047B704700BF3C
:1018F0006041005080B483B000AF7860044A7B68D8
:10190000136100BF0C37BD465DF8047B704700BF14
:101910006041005080B483B000AF7860044A7B68B7
:10192000D36000BF0C37BD465DF8047B704700BF35
:101930006041005080B483B000AF7860054B5A69B5
:1019400004497B6813434B6100BF0C37BD465DF80B
:10195000047B70473C41005080B400AF034B5B698F
:101960001846BD465DF8047B704700BF3C410050FF
:1019700080B483B000AF7860054B1A6804497B6877
:1019800013430B6000BF0C37BD465DF8047B704706
:101990003C41005080B483B000AF7860064B1A68B9
:1019A0007B68DB43044913400B6000BF0C37BD4626
:1019B0005DF8047B704700BF3C41005080B483B0A9
:1019C00000AF7860054B9A6804497B6813438B60CD
:1019D00000BF0C37BD465DF8047B70473C410050AA
:1019E00080B483B000AF7860064B9A687B68DB43B5
:1019F000044913408B6000BF0C37BD465DF8047B83
:101A0000704700BF3C41005080B483B000AF7860A5
:101A1000054B5A6904497B6813434B6100BF0C377F
:101A2000BD465DF8047B70477440005080B483B0BD
:101A300000AF7860064B5A697B68DB43044913406A
:101A40004B6100BF0C37BD465DF8047B704700BF9B
:101A50007440005080B485B000AF78607B681B0F85
:101A6000FB607B6823F07043BB60FA6813465B0041
:101A700013449B001A46054B1344BA681A6000BF12
:101A80001437BD465DF8047B704700BF104400501A
:101A900080B485B000AF78607B681B0FFB607B680B
:101AA00023F07043BB60FA6813465B0013449B004D
:101AB0001A46054B1344BA681A6000BF1437BD4676
:101AC0005DF8047B704700BF1444005080B485B0BB
:101AD00000AF78607B681B0FFB607B6823F070436E
:101AE000BB60FA6813465B0013449B001A46084B20
:101AF00013441A68BB681340002B14BF0123002352
:101B0000DBB218461437BD465DF8047B704700BF52
:101B10000C44005080B584B000AF00F039F8F86094
:101B20001A4B1B6803F00103002B09D0174B9B686D
:101B300003F07F030133FA68B2FBF3F3FB601FE0AD
:101B4000124B9B681B0E03F00F030133BB600F4B5E
:101B50009B681B0A03F07F0301337B600B4B9B6880
:101B60001B0C03F07F0301333B60FB687A6803FBC7
:101B700002F2BB68396801FB03F3B2FBF3F3FB60CD
:101B8000FB6818461037BD4680BD00BF10470050A7
:101B900080B582B000AF084BDB6803F00103002B77
:101BA00003D101F0DDF9786001E0044B7B607B68D4
:101BB00018460837BD4680BD1047005000366E01FC
:101BC00080B584B000AF01F0CBF9F860104B1B6911
:101BD00003F00103002B16D10D4B5B691B0A03F0C8
:101BE0007F030133BB600A4B5B691B0E03F00F03DD
:101BF00001337B60FB68BA6803FB02F27B685B0021
:101C0000B2FBF3F3FB60FB6818461037BD4680BD9E
:101C10001047005080B582B000AF00237B60FFF713
:101C20009BFB7860054B1B6A03F001037A6822FA7C
:101C300003F318460837BD4680BD00BF004600507C
:101C400080B582B000AF00237B60FFF759FB38609E
:101C50003B68B3F5803F03D1FFF75CFF786005E098
:101C60003B68002B02D1FFF7ABFF7860054B9B6907
:101C700003F0070301337A68B2FBF3F31846083721
:101C8000BD4680BD0046005080B582B000AFFFF772
:101C900041FF7860054BDB6903F03F0301337A684D
:101CA000B2FBF3F318460837BD4680BD004600502E
:101CB00080B582B000AF00237B60FFF72FFB386058
:101CC0003B68B3F5003F03D1FFF724FF78600CE0D9
:101CD0003B68002B02D10A4B7B6006E03B68B3F502
:101CE000803F02D14FF400437B60064B5B6ADBB25E
:101CF00001337A68B2FBF3F318460837BD4680BD5E
:101D000000366E010046005080B582B000AF00235F
:101D10007B60FFF711FB0346FB70FB78032B0DD1B3
:101D2000FFF7F8FE7860134B9B6A1B0CC3F30803A4
:101D300001337A68B2FBF3F37B6016E0FB78002B8B
:101D400003D1FFF709FB78600FE0FB78022B0CD181
:101D5000FFF736FF7860074B9B6A1B0CC3F3080341
:101D600001337A68B2FBF3F37B607B68184608376F
:101D7000BD4680BD0046005080B500AFFFF700FBB8
:101D80000246044B5B6903F0010322FA03F3184691
:101D900080BD00BF0046005080B483B000AF7860C3
:101DA000064BDB6823F4803204497B681343CB6025
:101DB00000BF0C37BD465DF8047B704700460050FD
:101DC00080B483B000AF7860064B9B6923F4803207
:101DD00004497B6813438B6100BF0C37BD465DF837
:101DE000047B70470046005080B483B000AF786039
:101DF000064B5B6A23F4403204497B6813434B6211
:101E000000BF0C37BD465DF8047B704700460050AC
:101E100080B483B000AF0346FB71074B9B6A23F08D
:101E20000302FB79044913438B6200BF0C37BD46A4
:101E30005DF8047B704700BF0046005080B483B05B
:101E400000AF0346FB80FB88002B08D10B4BDB68FF
:101E50000A4A23F4807323F00103D36007E0074BA1
:101E6000DB68064A43F4807343F00103D36000BF8C
:101E70000C37BD465DF8047B704700BF104700502B
:101E800080B483B000AF0346FB7100BF0A4BD3F8A8
:101E9000C43003F00803002BF8D1084BDB6823F0B3
:101EA0004002FB7905491343CB6000BF0C37BD46A8
:101EB0005DF8047B704700BF0040005000430050B5
:101EC00080B483B000AF0346FB7100BF0A4BD3F868
:101ED000C43003F00803002BF8D1084BDB6823F073
:101EE0008002FB7905491343CB6000BF0C37BD4628
:101EF0005DF8047B704700BF004000500043005075
:101F000080B483B000AF7860074BDB6823F0FF023A
:101F10007B68013B04491343CB6000BF0C37BD46CF
:101F20005DF8047B704700BF0046005080B483B06A
:101F300000AF7860074B1B6A23F001027B68013B0E
:101F4000044913430B6200BF0C37BD465DF8047BA8
:101F5000704700BF0046005080B483B000AF786087
:101F6000074B1B6923F001027B68013B04491343C3
:101F70000B6100BF0C37BD465DF8047B704700BFA6
:101F80000046005080B483B000AF7860074B5B69B7
:101F900023F001027B68013B044913434B6100BFFE
:101FA0000C37BD465DF8047B704700BF004600500B
:101FB00080B483B000AF7860074B9B6923F00702C1
:101FC0007B68013B044913438B6100BF0C37BD465E
:101FD0005DF8047B704700BF0046005080B483B0BA
:101FE00000AF7860074BDB6923F03F027B68013B61
:101FF00004491343CB6100BF0C37BD465DF8047B39
:10200000704700BF0046005080B483B000AF7860D6
:10201000074B5B6A23F0FF027B68013B04491343D3
:102020004B6200BF0C37BD465DF8047B704700BFB4
:102030000046005080B483B000AF7860084B9B6AC4
:1020400023F0FF7323F480337A68013A12040449C1
:1020500013438B6200BF0C37BD465DF8047B7047AD
:102060000046005080B483B000AF0346FB71044AC1
:10207000FB79536000BF0C37BD465DF8047B7047A9
:102080000046005080B483B000AF0346FB71044AA1
:10209000FB79936000BF0C37BD465DF8047B704749
:1020A0000046005080B483B000AF0346FB71074B7D
:1020B0001A68FB791340002B14BF01230023DBB205
:1020C00018460C37BD465DF8047B7047004600504B
:1020D00080B400AF084B5B69DBB207EE903AF8EED4
:1020E000677A9FED067A67EE877A17EE903A184680
:1020F000BD465DF8047B704700420050ED0DBE3BCD
:1021000080B400AF094B5B691B0ADBB207EE903A63
:10211000F8EE677A9FED067A67EE877A17EE903AC7
:102120001846BD465DF8047B704700BF0042005072
:10213000EC51B83C80B400AF064B5B69054A23F410
:10214000803323F00203536100BFBD465DF8047B7A
:10215000704700BF1047005080B400AF064B5B696A
:10216000054A43F4803343F00203536100BFBD4688
:102170005DF8047B704700BF1047005080B483B007
:1021800000AF786039601A4B5B69194A43F001036C
:102190005361174B5B69164A43F0100353613B6868
:1021A000013B1A027B68013B1B06114913434B613B
:1021B0000F4B5B690E4A43F0400353610C4B5B6964
:1021C0000B4A23F010035361094B5B69084A43F43F
:1021D0008023536100BF064B1B6903F00403002BEF
:1021E000F9D000BF00BF0C37BD465DF8047B7047D7
:1021F0001047005080B400AF034B044A5A6100BF3F
:10220000BD465DF8047B7047104700500300010095
:1022100080B582B000AF0346FB710F4B5B680E4A7E
:1022200043F480135360FB79012B0ED10A4B5B689A
:10223000094A23F4801353606420FFF7B9F8064B72
:102240005B68054A43F4002353606420FFF7B0F84D
:1022500000BF0837BD4680BD1047005080B400AFB6
:10226000044B4FF440325A6000BFBD465DF8047B1A
:10227000704700BF0042005080B400AF044B4FF4E1
:1022800040329A6000BFBD465DF8047B704700BFD6
:102290000042005080B400AF064B1B6903F00403FA
:1022A000002B14BF01230023DBB21846BD465DF8A6
:1022B000047B70471047005080B400AF124B1B687E
:1022C00003F00103002B09D10F4B01225A6000BF1C
:1022D0000D4B1B6803F00103002BF9D00B4B1B685F
:1022E00003F40073002B0AD0084B4FF400729A607D
:1022F00000BF064B1B6803F40073002BF9D100BF2D
:10230000BD465DF8047B7047004200500044005019
:1023100080B400AF054B01229A60054B4FF4007268
:102320005A6000BFBD465DF8047B70470042005014
:102330000044005080B400AF0B4B1B6803F0010356
:10234000002B07D0094B1B6803F40073002B01D14D
:10235000012300E0002303F00103DBB21846BD4671
:102360005DF8047B704700BF0042005000440050FD
:1023700080B400AF00BF094BD3F8C43003F0200392
:10238000002BF8D1064B5B69054A23F0010353612A
:1023900000BFBD465DF8047B704700BF00400050A1
:1023A0000043005080B400AF00BF094BD3F8C430E5
:1023B00003F02003002BF8D1064B5B69054A43F07C
:1023C0000103536100BFBD465DF8047B704700BF49
:1023D000004000500043005080B483B000AF7860EC
:1023E00000BF084BD3F8C43003F00203002BF8D130
:1023F000054A7B68536000BF0C37BD465DF8047B1F
:10240000704700BF004000500043005080B483B0CC
:1024100000AF786000BF084BD3F8C43003F004036A
:10242000002BF8D1054A7B68936000BF0C37BD468E
:102430005DF8047B704700BF00400050004300502F
:1024400080B483B000AF786000BF094BD3F8C430CC
:1024500003F00803002BF8D1064BDA687B680549C6
:102460001343CB6000BF0C37BD465DF8047B70475B
:10247000004000500043005080B483B000AF78604B
:1024800000BF0A4BD3F8C43003F00803002BF8D187
:10249000074BDB687A68D2431146054A0B40D3608C
:1024A00000BF0C37BD465DF8047B7047004000500C
:1024B0000043005080B400AF00BF094BD3F8C430D4
:1024C00003F00803002BF8D1064BDB68054A43F004
:1024D0001003D36000BFBD465DF8047B704700BFAA
:1024E000004000500043005080B582B000AF03466A
:1024F000FB71FB79002B01D1FFF7DCFF00BF083730
:10250000BD4680BD80B483B000AF0346FB7100BF01
:102510000E4BD3F8C43003F00803002BF8D1FB793D
:10252000002B06D10A4BDB68094A43F48073D36061
:1025300005E0074BDB68064A23F48073D36000BFD5
:102540000C37BD465DF8047B704700BF004000506B
:102550000043005080B483B000AF03463960FB7184
:1025600000BF0F4BD3F8C43003F00803002BF8D1A1
:102570000C4BDA68FB799B004FF4702101FA03F3EE
:10258000DB431A40FB799B00396801FA03F30549E4
:102590001343CB6000BF0C37BD465DF8047B70472A
:1025A000004000500043005080B483B000AF0346A9
:1025B0000A46FB711346BB8000BF0F4BD3F8C430F3
:1025C00003F00803002BF8D10C4BDA68FB794FF4C9
:1025D000805101FA03F3DB431340B988FA7901FA19
:1025E00002F21146054A0B43D36000BF0C37BD46CB
:1025F0005DF8047B704700BF00400050004300506E
:1026000080B483B000AF0346FB7100BF0E4BD3F81C
:10261000C43003F00803002BF8D1FB79002B06D15E
:102620000A4BDB68094A43F48063D36005E0074B3B
:10263000DB68064A23F48063D36000BF0C37BD46D5
:102640005DF8047B704700BF00400050004300501D
:1026500080B483B000AF0346FB8000BF0A4BD3F8C1
:10266000C43003F00803002BF8D1084BDB6823F4D7
:102670008062FB8805491343CB6000BF0C37BD4621
:102680005DF8047B704700BF0040005000430050DD
:1026900080B400AF064B1B6803F00803002B0CBF8F
:1026A00001230023DBB21846BD465DF8047B70476A
:1026B0000043005080B500AF00BF174BD3F8C430C3
:1026C00003F08003002BF8D1144BDB69134A23F08D
:1026D0003003D36100BF104BD3F8C43003F00803BC
:1026E000002BF8D10D4BDB680C4A43F00803D36094
:1026F00000BF094BD3F8C43003F00403002BF8D11A
:10270000064B08229A6000BFFEF746FE0346002BE8
:10271000FAD100BF00BF80BD004000500043005010
:1027200080B400AF00BF094BD3F8C43003F080037E
:10273000002BF8D1064BDB69054A43F03003D36127
:1027400000BFBD465DF8047B704700BF00400050ED
:102750000043005080B400AF00BF094BD3F8C43031
:1027600003F08003002BF8D1064BDB69054A43F0E8
:102770003103D36100BFBD465DF8047B704700BFE5
:10278000004000500043005080B400AF00BF0A4B2F
:10279000D3F8C43003F08003002BF8D1074BDB697A
:1027A00023F03103054A43F02003D36100BFBD4647
:1027B0005DF8047B704700BF0040005000430050AC
:1027C00080B400AF044B9B6903F001031846BD467B
:1027D0005DF8047B704700BF0043005098B500AF20
:1027E0000F4B5B680E4A23F4803353600D4B5B68DC
:1027F00023F4702424F0300400F0B2FB03460A4AAC
:10280000A2FB03231B0D013B1B04064A2343536019
:10281000034B5B68024A23F40033536000BF98BD4A
:1028200010470050004700506BCA5F6B80B400AF88
:10283000074B1B6803F46073B3F5607F0CBF012383
:102840000023DBB21846BD465DF8047B704700BF2D
:102850001047005080B400AF054B5B68044A43F05A
:102860003003536000BFBD465DF8047B704700BF76
:102870000047005080B400AF054B5B68044A43F04A
:102880000103536000BFBD465DF8047B704700BF85
:102890000047005080B400AF054B5B68044A23F04A
:1028A0000103536000BFBD465DF8047B704700BF65
:1028B0000047005080B400AF044B1B6803F00103D5
:1028C0001846BD465DF8047B704700BF00470050C6
:1028D00080B400AF064B5B68054A23F4803323F0D5
:1028E0000203536000BFBD465DF8047B704700BF24
:1028F0001047005080B400AF064B5B68054A43F4B4
:10290000803343F00203536000BFBD465DF8047B93
:10291000704700BF1047005080B586B000AFBA6066
:102920007B600346FB810B467B73FB891846FFF7F0
:1029300085FA7B7B012B40F08480FB89002B09D139
:1029400000F00EFB03464C4AA2FB03239B0C9B05A5
:102950007B6102E04FF0C0637B617B697A6803FBB7
:1029600002F2BB68B2FBF3F37B617B69434AA2FBD3
:1029700003231B099B0D3B61414B5B68404A43F0BD
:10298000010353603E4B5B683D4A43F010035360C4
:102990003B4B9A683B4B13407A68013A12021A4348
:1029A0003B69013B1B041A43BB68013B1B063449CE
:1029B00013438B60324B5B68314A43F040035360F2
:1029C0002F4B5B682E4A23F0100353602C4B5B683F
:1029D0002B4A43F48023536000BF294B1B6803F04C
:1029E0000403002BF9D0264B5B68254A23F0010332
:1029F000536000BF224B1B6803F00103002BF9D189
:102A00007B69214AA2FB03235B099B0D3B613A6A68
:102A10003B699A4202D2386900F04AF87B695B0848
:102A20001A4AA2FB03235B099B0D3B613A6A3B698F
:102A30009A4202D2386900F03BF8386A00F038F860
:102A400015E00F4B9B6823F07F023B6A013B0C496A
:102A500013438B600A4B5B68094A43F001035360E0
:102A600000BF074B1B6803F00103002BF9D000BF28
:102A70001837BD4680BD00BF83DE1B43ABAAAAAAA0
:102A800010470050FF8080F089888888B7600BB6B7
:102A900080B400AF054B5B68044A43F48033536055
:102AA00000BFBD465DF8047B704700BF1047005073
:102AB00080B582B000AF7860084B9B6823F4FE02BB
:102AC0007B68013B1B04054913438B603220FEF7F2
:102AD0006FFC00BF0837BD4680BD00BF10470050E7
:102AE00080B400AF064B1B6803F00403002B14BF37
:102AF00001230023DBB21846BD465DF8047B704716
:102B00001047005080B485B000AF78603960002372
:102B1000FB6002E0FB680133FB607A68FB6822FA25
:102B200003F303F00103002B02D1FB681F2BF1D943
:102B3000FB68202B02D10123FB7206E00649FB68EB
:102B40003A6841F823200023FB72FB7A18461437B9
:102B5000BD465DF8047B7047EC08002080B586B068
:102B600000AF786000237B61FEF77EFC38611CE0DB
:102B70003A697B6922FA03F303F00103002B11D0B9
:102B80000E4A7B6952F82330FB60FB68002B01D0B2
:102B9000FB68984701227B6902FA03F31846FEF7A7
:102BA0006FFC06E07B6901337B617B691F2BDFD9FA
:102BB00000BF00BF1837BD4680BD00BFEC08002035
:102BC00080B485B000AF78600023FB6003E000BFF5
:102BD000FB680133FB60FB687A689A42F7D800BF54
:102BE00000BF1437BD465DF8047B704798B500AF51
:102BF000064A4FF0005314460FCB84E80F0000F054
:102C000007F800F03FF800BF98BD00BFC4FF0020E8
:102C100080B483B000AF72B600BF174B174A9A60FA
:102C2000BFF34F8F00BF62B600BF134BD3F888309D
:102C3000114A43F47003C2F888300F4B5B690E4AA7
:102C400023F0080353610E4B03F580535B697B60EF
:102C50007B6823F00F037B607B6843F003037B609A
:102C6000074B03F580531A467B68536100BF0C374E
:102C7000BD465DF8047B704700ED00E000000008F1
:102C80000010005880B500AF754B1B6803F00103BE
:102C9000002B0CD1724B5B68714A43F00103536007
:102CA00000BF6F4B1B6803F00103002BF9D06D4B85
:102CB0001B6803F40073002B09D06A4B9B68694AB8
:102CC00043F40073936041F64C50FFF779FF664B75
:102CD0005B68654A43F40023536040F6C410FFF775
:102CE0006FFF614B5B68604A23F4803323F002037B
:102CF00053605E4B5B6803F03003002B29D05B4BC5
:102D00005B685A4A23F4702323F03003536000F0C9
:102D100027F90346564AA2FB03231B0D013B1A0465
:102D2000524B5B68514913434B604F4BDB684E4A33
:102D300023F00103D3604C4B5B684B4A23F4003310
:102D4000536000BF484B1B6803F46073B3F5607FAA
:102D5000F8D1454B5B68444A43F001035360424B52
:102D60005B68414A43F0100353603F4B414A9A600D
:102D70003D4B5B683C4A43F0400353603A4B5B6811
:102D8000394A23F010035360374B5B68364A43F4EB
:102D90008023536000BF344B1B6803F00403002BF7
:102DA000F9D0314B5B68304A23F00103536000BF18
:102DB0002D4B1B6803F00103002BF9D12E4BDB6870
:102DC0002D4A43F48033D3602B4B00225A612A4BA7
:102DD00000221A61284B00221A62274B00225A62F5
:102DE000254B0022DA61244B03229A611E4B5B685B
:102DF0001D4A23F0400353601B4B204A9A6040F663
:102E0000B830FFF7DDFE00BF174B1B6803F004036B
:102E1000002BF9D0144B1A4A9A6041F29410FFF734
:102E2000CFFE00BF104B1B6803F00403002BF9D04A
:102E30000D4B144A9A6041F27070FFF7C1FE00BF5B
:102E4000094B1B6803F00403002BF9D00E4B05223D
:102E5000DA60094B00225A6000F018F800BF80BD0C
:102E600000420050004400501047005000470050FE
:102E70006BCA5F6B004F130100460050004F070103
:102E8000004F0401004F03016041005080B584B041
:102E900000AF2F4BDB6803F48033002B3ED02D4B6B
:102EA000DB6803F00103002B02D02B4BFB6002E038
:102EB00000F056F8F860274B1B6803F00403002B62
:102EC00020D0244B9B681B0E03F00F0301337B6063
:102ED000204B9B681B0A03F07F0301333B601D4BB3
:102EE0009B681B0C03F07F030133BB607B68BA68EF
:102EF00002FB03F3FA68B2FBF3F23B6802FB03F355
:102F0000FB600DE0134B9B6803F07F030133BB6054
:102F1000FA68BB68B2FBF3F3FB6001E00E4BFB60A9
:102F20000B4BDB68DBB20133FA68B2FBF3F3FB60F7
:102F3000074B1B6903F001030133FA68B2FBF3F39B
:102F4000FB60064AFB68136000BF1037BD4680BDBA
:102F5000004600501047005000366E01C0FF0020B0
:102F600080B400AF024B1846BD465DF8047B704745
:102F7000001BB70080B584B000AF7860144B1B68AD
:102F8000002B02D1124B134A1A60114B1B68FB60D5
:102F90007B68033323F003037B600D4B1A687B6867
:102FA00013440D4A934207D2094B1A687B681344B5
:102FB000074A1360FB6806E000F018F803460C228D
:102FC0001A604FF0FF3318461037BD4680BD00BF72
:102FD00070090020D0090020C0FF002080B400AF9D
:102FE00000BFBD465DF8047B70470000014B1868C8
:102FF000704700BFA000002070B50D4E0D4D761B30
:10300000B61006D0002455F8043B01349847A64278
:10301000F9D1094E094D761BFFF7E0FFB61006D037
:10302000002455F8043B01349847A642F9D170BDFD
:10303000E0080020E0080020E0080020E008002070
:10304000024B0146186800F00BB800BFA00000203A
:10305000024B0146186800F011BC00BFA000002020
:103060002DE9F04F01F10B06162E83B0044624D84B
:10307000102900F2BA8000F0A3FA102618220220CC
:10308000B54F3A44A2F1080153688B4200F0BA8070
:103090005A68D96822F003021A449D68E9608D607D
:1030A000516841F001012046516003F1080500F02C
:1030B0008DFA284603B0BDE8F08F36F0070600F120
:1030C0009480B14200F2918000F07AFAB6F5FC7F6C
:1030D000C0F09A81730A00F08F80042B00F26F8198
:1030E000B30903F1390003F1380CC3009A4F3B4494
:1030F000A3F108055B689D4206D10CE0002980F22F
:103100002781DB689D4206D05A6822F00302911B9A
:103110000F29F3DD60463D69DFF840C265457CD08C
:103120006A6822F00302931B0F2B00F37B81002BB4
:10313000C7E904CC80F26C81B2F5007F80F01A817F
:10314000D308796801334FEA521E012202FA0EF2C7
:103150000A4357F833E0C5F808E007EBC301083924
:10316000E9607A6047F83350CEF80C5083100121A3
:103170009940914257D8114206D120F003004900EE
:10318000114200F10400FAD007EBC0094D46864613
:10319000D5F80C80454508D11DE1002B80F2248133
:1031A000D8F80C80454500F01681D8F8042022F0AC
:1031B0000302931B0F2BF0DD2046D8E9025408EBE5
:1031C000060146F00106C8F80460EC60A56043F013
:1031D0000104C7E90411C1E902CC4C6048F802308F
:1031E00000F0F4F908F1080502E00C232360002543
:1031F000284603B0BDE8F08F4FF4007340204FF035
:103200003F0C73E7D3689A4208BF02307FF440AFA7
:103210003D69DFF848C1654582D17A688310012194
:1032200099409142A7D9BD686B6823F003094E45C8
:1032300003D8A9EB06030F2B7ADCDFF824B1494B46
:10324000DBF800201B680132334405EB090A00F06B
:10325000338103F580530F3323F47F6828F00F0880
:103260004146204600F0B8F9411C024600F0F380C8
:10327000824500F2EE803C4B1968414419600846D3
:1032800000F04E81DBF80010019301311BBFA2EB6F
:103290000A0A5044CBF80020186012F0070B00F027
:1032A0001781CBF108010A44CBF5805190440831D5
:1032B000A1EB0801C1F30B0A51462046009200F031
:1032C0008BF9421CDDE9002300F04F81801A00EBEE
:1032D0000A081968BA6048F001005144BD425060C4
:1032E000196000F02981B9F10F0F40F22781686859
:1032F000A9F10C0C2CF0070C00F0010040EA0C00C6
:1033000068604FF0050E05EB0C00BCF10F0FC0E933
:1033100001EE00F2328150681546144B1A688A4259
:1033200038BF1960124B1A688A4238BF196094E09E
:10333000AA1943F0010346F001066E602046BA6008
:10334000536000F043F90835284603B0BDE8F08F1C
:10335000D9681A44A1E600BFD0040020D804002098
:10336000D8080020A4090020740900209C0900202E
:10337000A0090020B2F5206F4FEA522363D3142B2B
:1033800000F2B78003F15C01C9005B3307EB010E6B
:103390007958AEF1080E8E4500F091804B6823F00D
:1033A0000303934202D989688E45F7D1D1F80CE026
:1033B0007A68C5E9021ECEF80850CD60D6E6142B17
:1033C00059D9542B00F29D80330B03F16F0003F1A8
:1033D0006E0CC3008AE60EF1010E1EF0030F05F11C
:1033E00008057FF4D5AE51E0424445465368D8F80D
:1033F0000C1043F00103536055F8083F2046D96094
:103400008B6000F0E3F8F3E6F00806F1080237E617
:103410002A442046536843F001035360083500F006
:10342000D5F8E5E6A919204646F0010643F0010467
:103430006E60C7E90411C1E902CC4C60AB5000F0EA
:10344000C5F80835D4E6930903F13901C9003833CA
:103450009CE7BD425FD0BD68686820F00308464520
:10346000A8EB060302D80F2B3FF762AF204600F00F
:10347000ADF80025BCE603F15C0003F15B0CC30072
:1034800034E659F808394B4540F0968010F0030FA8
:1034900000F1FF30F5D17B6823EA01037B6049002E
:1034A00099423FF6C0AE19B9BDE649000EF1040ECF
:1034B0001942FAD0704667E603F11008D0E69A1078
:1034C0004FF001087B6808FA02F21A437A6070E74D
:1034D00002EB08014942C1F30B0A51462046009213
:1034E00000F07AF8431CDDE900237FF4EFAEDA4602
:1034F000EFE6542B25D8130B03F16F01C9006E338F
:1035000044E7B3F5AA7F25D8F30B03F1780003F164
:10351000770CC300EAE5294B186840441860B1E60F
:10352000CAF30B0CBCF1000F7FF4ACAEBD68C8440D
:1035300048F001006860F0E61546EEE601235360AE
:1035400094E7B3F5AA7F23D8D30B03F17801C90020
:1035500077331BE740F25452934223D8B30C03F164
:103560007D0003F17C0CC300C0E5ABF1080BD8442F
:10357000A8EB02084FF0000AABE605F1080120466F
:10358000009300F07BF9BD68009B68681968C4E689
:1035900040F254518B420BD8930C03F17D01C900CA
:1035A0007C33F3E64FF47E737F204FF07E0C9DE575
:1035B0004FF47E717E23E9E67B6870E77409002092
:1035C000014800F06BBA00BFBC090020014800F0C0
:1035D0006DBA00BFBC09002038B5074D0022044673
:1035E00008462A60FFF7C6FC431C00D038BD2B6894
:1035F000002BFBD0236038BDCC090020830710B519
:10360000044610D10268A2F1013323EA020313F049
:10361000803F08D150F8042FA2F1013323EA0203BE
:1036200013F0803FF6D003781BB110F8013F002B58
:10363000FBD100F003F8204610BD00BF80EA010274
:10364000844612F0030F4FD111F0030F32D14DF821
:10365000044D11F0040F51F8043B0BD0A3F10132DB
:103660009A4312F0803F04BF4CF8043B51F8043BEE
:1036700016D100BF51F8044BA3F101329A4312F066
:10368000803FA4F101320BD14CF8043BA24312F06D
:10369000803F04BF51F8043B4CF8044BEAD023466A
:1036A0000CF8013B13F0FF0F4FEA3323F8D15DF81C
:1036B000044B704711F0010F06D011F8012B0CF8E4
:1036C000012B002A08BF704711F0020FBFD031F85C
:1036D000022B12F0FF0F16BF2CF8022B8CF80020E3
:1036E00012F47F4FB3D1704711F8012B0CF8012B66
:1036F000002AF9D1704700BF000000000000000060
:1037000090F800F06DE9024520F007016FF0000C21
:1037100010F0070491F820F040F049804FF00004C9
:103720006FF00700D1E9002391F840F000F10800A4
:1037300082FA4CF2A4FA8CF283FA4CF3A2FA8CF3DC
:103740004BBBD1E9022382FA4CF200F10800A4FA43
:103750008CF283FA4CF3A2FA8CF3E3B9D1E9042397
:1037600082FA4CF200F10800A4FA8CF283FA4CF3CE
:10377000A2FA8CF37BB9D1E9062301F1200182FA88
:103780004CF200F10800A4FA8CF283FA4CF3A2FA8E
:103790008CF3002BC6D0002A04BF04301A4612BA9C
:1037A000B2FA82F2FDE8024500EBD2007047D1E99F
:1037B000002304F00305C4F100004FEAC50514F02E
:1037C000040F91F840F00CFA05F562EA05021CBFFF
:1037D00063EA050362464FF00004A9E7F8B5244FF9
:1037E0000C460646FFF7ECFEBA685568C4F57E63E2
:1037F0000F3325F003052B4423F47F6323F00F03DD
:10380000A3F58054B4F5805F07DB00213046FFF755
:10381000E3FEBB682B44984204D03046FFF7D6FE47
:103820000020F8BD61423046FFF7D6FE01300DD0D2
:10383000104ABB682D1B45F001055D6013683046DA
:103840001B1B1360FFF7C2FE0120F8BD00213046AC
:10385000FFF7C2FEBA68831A0F2BDEDD43F00103C7
:103860005360054B03491B68C01A0860D5E700BFC9
:10387000D004002074090020D8080020002961D05D
:10388000F8B50C460646FFF79BFE54F8042C7B4F18
:10389000A4F1080522F0010105EB010CB868DCF881
:1038A0000430604523F0030300F08B80D207CCF88E
:1038B000043032D454F8082CAD1A1144AA6807F128
:1038C000080082426AD00CEB0304D4F804E0EC68F0
:1038D000D4601EF0010FA26000F0978041F0010358
:1038E0006B60CCF80010B1F5007F35D27A68CB0858
:1038F00048090121013381401143796007EBC3027C
:1039000057F83310083AC5E9021247F83350CD6032
:103910003046BDE8F840FFF759BE0CEB0302526891
:10392000D00710D4194407F10800DCF808308342AE
:1039300073D0DCF80C20DA60936041F001036B6017
:103940006950D0E7704741F00103B1F5007F44F8BA
:10395000043CCCF80010C9D3B1F5206F4FEA5123D5
:1039600048D28B0903F1390003F13802C300F8187B
:10397000FB580838984259D05A6822F003028A420C
:1039800002D99B689842F7D1D868C5E902308560B2
:10399000DD603046BDE8F840FFF718BE0CEB0302CF
:1039A0005268D20763D40B44DCE90212CA6091600A
:1039B00043F001026A603046EB50BDE8F840FFF783
:1039C00005BE0B44D10707D454F8082CAD1A134494
:1039D000D5E90212CA60916043F001026A60284A88
:1039E000BD6012689A4293D8264B30461968FFF79B
:1039F000F5FE8DE7142B0AD9542B1FD80B0B03F1BE
:103A00006F0003F16E02C300B1E719448DE703F1C3
:103A10005C0003F15B02C300A9E741F00103C7E9C1
:103A20000455C5E902006B60695071E7796892102E
:103A3000012404FA02F20A437A60A6E7B3F5AA7FEA
:103A400006D8CB0B03F1780003F17702C3008EE7B1
:103A500040F25452934206D88B0C03F17D0003F1DF
:103A60007C02C30083E74FF47E737E227FE741F040
:103A700001036B60CCF800104AE700BFD0040020BF
:103A8000DC080020A4090020704700BF704700BF79
:103A9000704700BF704700BF704700BF704700BF4E
:103AA0000120704701207047704700BF704700BF7A
:103AB0002DE9F0410E680C460546BEB137688FB15E
:103AC000D7F80080B8F1000F08D0D8F8001009B17D
:103AD000FFF7EEFF41462846FFF7D0FE394628465D
:103AE000FFF7CCFE31462846FFF7C8FE21462846A0
:103AF000BDE8F041FFF7C2BE224B1B68834240D0B5
:103B0000C16C70B5054681B100268C593CB1214687
:103B100024682846FFF7B2FE002CF8D1E96C043681
:103B2000802EF2D12846FFF7A9FE296C11B1284654
:103B3000FFF7A4FED5F8484154B105F5A676B44286
:103B400006D0214624682846FFF798FEA642F8D101
:103B5000696D11B12846FFF791FEAB6B83B1EB6B3A
:103B600028469847D5F8E04254B1216811B128465B
:103B7000FFF79EFF21462846BDE87040FFF77EBE56
:103B800070BD7047A000002030000000313031319E
:103B9000310000003131313031303130310000003E
:103BA000313131303130313131303100313131303A
:103BB00031303100310000003130313031313130BD
:103BC000310000003131313031313130310000000D
:103BD000313031303130310031303100313031313C
:103BE000313031313130313131000000313131305B
:103BF000313031313100000031303131313031304C
:103C0000310000003131313031313100313131306A
:103C1000310000003131313031313130313131005A
:103C200031303131313031313130310031313130B9
:103C3000313131303130313131000000313031310A
:103C4000313031003130313031000000313131005C
:103C5000313031303131310031303130313031318A
:103C6000310000003130313131303131310000006C
:103C70003131313031303130313131003131313069
:103C800031303131313031313100000031313130BA
:103C90003131313031303100492043414E204D4FD8
:103CA000525345000000000030303000800000001A
:0C3CB0000000010000000000A80000203F
:103CBC00204142434445464748494A4B4C4D4E4FA0
:103CCC00505152535455565758595A00883B000876
:103CDC008C3B0008943B0008A03B0008AC3B000860
:103CEC00B43B0008B83B0008C43B0008D03B0008BC
:103CFC00D83B0008DC3B0008EC3B0008F83B000814
:103D0C00043C00080C3C0008143C0008203C000853
:103D1C002C3C00083C3C0008443C00084C3C00088F
:103D2C00503C0008583C0008643C0008703C0008FB
:103D3C007C3C00088C3C00081B000000983C0008F0
:103D4C00A43C000832000000000000000A00000043
:103D5C00A8000020000000000000000094030020D8
:103D6C00FC030020640400200000000000000000A0
:103D7C000000000000000000000000000000000037
:103D8C000000000000000000000000000000000027
:103D9C000000000000000000000000000000000017
:103DAC000000000000000000000000000000000007
:103DBC0000000000000000000000000000000000F7
:103DCC0000000000000000000000000000000000E7
:103DDC0000000000000000000000000000000000D7
:103DEC0000000000000000000000000000000000C7
:103DFC0000000000000000000000000000000000B7
:103E0C0001000000000000000E33CDAB34126DE653
:103E1C00ECDE05000B0000000000000000000000BC
:103E2C000000000000000000000000000000000086
:103E3C000000000000000000000000000000000076
:103E4C000000000000000000000000000000000066
:103E5C000000000000000000000000000000000056
:10418C000000000000000000D0040020D00400203B
:10419C00D8040020D8040020E0040020E004002013
:1041AC00E8040020E8040020F0040020F0040020C3
:1041BC00F8040020F8040020000500200005002071
:1041CC00080500200805002010050020100500201F
:1041DC0018050020180500202005002020050020CF
:1041EC00280500202805002030050020300500207F
:1041FC00380500203805002040050020400500202F
:10420C0048050020480500205005002050050020DE
:10421C00580500205805002060050020600500208E
:10422C00680500206805002070050020700500203E
:10423C0078050020780500208005002080050020EE
:10424C00880500208805002090050020900500209E
:10425C009805002098050020A0050020A00500204E
:10426C00A8050020A8050020B0050020B0050020FE
:10427C00B8050020B8050020C0050020C0050020AE
:10428C00C8050020C8050020D0050020D00500205E
:10429C00D8050020D8050020E0050020E00500200E
:1042AC00E8050020E8050020F0050020F0050020BE
:1042BC00F8050020F805002000060020000600206C
:1042CC00080600200806002010060020100600201A
:1042DC0018060020180600202006002020060020CA
:1042EC00280600202806002030060020300600207A
:1042FC00380600203806002040060020400600202A
:10430C0048060020480600205006002050060020D9
:10431C005806002058060020600600206006002089
:10432C006806002068060020700600207006002039
:10433C0078060020780600208006002080060020E9
:10434C008806002088060020900600209006002099
:10435C009806002098060020A0060020A006002049
:10436C00A8060020A8060020B0060020B0060020F9
:10437C00B8060020B8060020C0060020C0060020A9
:10438C00C8060020C8060020D0060020D006002059
:10439C00D8060020D8060020E0060020E006002009
:1043AC00E8060020E8060020F0060020F0060020B9
:1043BC00F8060020F8060020000700200007002067
:1043CC000807002008070020100700201007002015
:1043DC0018070020180700202007002020070020C5
:1043EC002807002028070020300700203007002075
:1043FC003807002038070020400700204007002025
:10440C0048070020480700205007002050070020D4
:10441C005807002058070020600700206007002084
:10442C006807002068070020700700207007002034
:10443C0078070020780700208007002080070020E4
:10444C008807002088070020900700209007002094
:10445C009807002098070020A0070020A007002044
:10446C00A8070020A8070020B0070020B0070020F4
:10447C00B8070020B8070020C0070020C0070020A4
:10448C00C8070020C8070020D0070020D007002054
:10449C00D8070020D8070020E0070020E007002004
:1044AC00E8070020E8070020F0070020F0070020B4
:1044BC00F8070020F8070020000800200008002062
:1044CC000808002008080020100800201008002010
:1044DC0018080020180800202008002020080020C0
:1044EC002808002028080020300800203008002070
:1044FC003808002038080020400800204008002020
:10450C0048080020480800205008002050080020CF
:10451C00580800205808002060080020600800207F
:10452C00680800206808002070080020700800202F
:10453C0078080020780800208008002080080020DF
:10454C00880800208808002090080020900800208F
:10455C009808002098080020A0080020A00800203F
:10456C00A8080020A8080020B0080020B0080020EF
:10457C00B8080020B8080020C0080020C00800209F
:10458C00C8080020C8080020FFFFFFFF0000020041
:0400000508000201EC
:00000001FF
